:100000006F000068130000001300000013000000E0
:100010001300000013000000130000001300000094
:100020001300000013000000130000001300000084
:08003000130000007300100032
:100038000000000000000000660800006A080000D8
:10004800000000001806000000000000000000008A
:100058001A0600001C060000000000000000000056
:100068001E0600000000000020060000000000003E
:1000780022060000240600002606000028060000CC
:100088002A0600002C0600002E060000300600009C
:10009800320600003406000036060000380600006C
:1000A8003A0600003C0600003E060000400600003C
:1000B800420600004406000046060000480600000C
:1000C8004A0600004C0600004E06000050060000DC
:1000D80052060000540600005606000058060000AC
:1000E8005A0600005C0600005E060000600600007C
:1000F800620600006406000066060000680600004C
:100108006A0600006C0600006E060000700600001B
:1001180072060000740600007606000078060000EB
:100128007A0600007C0600007E0600000000000041
:080138000000000000000000BF
:100140002A8311C62300B3007D16050365FE828055
:1001500001118545114506CE02C202C402C66129BD
:10016000E1772312F10037150140C1473EC64C002C
:100170008D47130505803EC4C524F2400561828089
:100180007971094506D622D426D202C602C802CA0F
:1001900002CC02CE752A6920130540067D207165C8
:1001A00013050520F128370400208325C4050965BF
:1001B000130505A0652D2D2D8325C405096513059F
:1001C00005A16D2568009D2EB2450965130505A2A0
:1001D000712DC2450965130585A3492DD2450965D1
:1001E0001305C5A46125E2450965130545A6BD2D86
:1001F00009651305C5A7EF00C07637140140893F94
:1002000081441304048013054006812099E40546C7
:100210008544A1652285092EFDB701468144D5BFDD
:10022000B707002083A7C70537177A0013070720F1
:10023000B3D7E70293F7F70F238BF1801307803EC4
:10024000B387E702239AF1808280B7F700E0D843B2
:100250008146799BD8C303D741813306A70290CB4F
:10026000D4CB98431367070198C3984313671702C9
:1002700098C3D843058B75DF9843799B98C38280D8
:10028000797122D42A8411658545110506D6A526E3
:10029000930700202312F100371501408D473EC41B
:1002A0004C00E147130505803EC67D2237450140DD
:1002B000B70708000C081305058022C83ECC02CA07
:1002C000231E010049283745014085451305058057
:1002D000A92AB25022544561828001114AC8374987
:1002E000014022CC26CA4EC606CEAE893284814455
:1002F0001309098063CA8400F24022856244D24413
:100300004249B24905618280930500044A853D2A2D
:1003100065DDB3879900838507004A858504C2059A
:10032000C1810522C1BFB7060020AA8703A58605A3
:100330001387C196AA9763EBE7003757002013078E
:1003400007806365F70023ACF60482807D558280C8
:1003500023ACA180828003570501F577FD177D8FBF
:1003600083D76500797122D426D206D6D98F231877
:10037000F5000357C500FD779387379F7D8F83D79F
:1003800045002A84AE84D98F03D78500D98F03D73F
:10039000A500D98F2316F5008357450103D7C50063
:1003A000C207C18393F7F7CFD98F231AF5006800EE
:1003B0007122B747014093870780631DF404E24729
:1003C0008356C4006547B387E702C206C1869840DA
:1003D00063D406040607930640060356C400B3D749
:1003E000E7024206418633D7D702B3F7D702120796
:1003F000635606028E0793872703B3D7D7029D8BD8
:10040000D98FC207C183B2502314F40022549254EE
:1004100045618280D2476DB70A0775BF92079387FF
:100420002703B3D7D702BD8BE1BF8357C50091C562
:100430000967D98F2316F500828079777D17F98FA8
:10044000D5BF93F5F51F2312B50082800355050033
:100450006D8D3335A00082809C4513F7070113F89A
:10046000F70001C7D8413368E80037170140631728
:10047000E50003D7050035832390E50083D505000B
:1004800013F7F50F31C318418146054E930E8002D4
:100490003D4F930F800421433316DE00B3F8C500AF
:1004A00063101603639AD70750C913962600B31832
:1004B000CF0093C8F8FF33F7E8003316C800518F18
:1004C0008506E39B66FC18C11307F00F6375B7043C
:1004D00054410146054E930E8002130F80042143C0
:1004E000130786003317EE00B3F8E5006311170316
:1004F0006398D70358C9931826003D47331717014F
:100500001347F7FFF98EB3181801B3E6D8000506B4
:10051000E31866FC54C18280E399F7F910C971B7FA
:10052000E39BE7FD18C9C1BFB71701406313F5008E
:10053000B58119C20CC982804CC98280371702402C
:100540005443B7177A002146B18A938707206397EF
:10055000C6045C435843C166C983BD8B758F890748
:10056000C5466393D700C94709EF374702401307D1
:1005700007801843418B09CF37177A0013070720EC
:1005800021A83717024058439316E700E3D606FE2A
:1005900037173D0013070790B387E7021CC13716D2
:1005A0000240544209671307C7AC9182BD8ABA96CC
:1005B00083C60600B3D7D7005CC15442A1829D8A8E
:1005C000BA9683C60600B3D6D70014C55442AD828E
:1005D0009D8A36970347070093860181B3D7E700CA
:1005E0005CC5584239830D8B369703470700B3D754
:1005F000E7021CC9828099C5371702401C4FC98F7A
:100600001CCF8280B7170240984F1345F5FF798DB4
:1006100088CF828001A001A001A001A001A001A0BB
:1006200001A001A001A001A001A001A001A001A0C2
:1006300001A001A001A001A001A001A001A001A0B2
:1006400001A001A001A001A001A001A001A001A0A2
:1006500001A001A001A001A001A001A001A001A092
:1006600001A001A001A001A001A001A001A001A082
:1006700001A001A001A001A001A001A001A001A072
:10068000970100209381811D17510020130181974C
:10069000171500001305454B970500209385859697
:1006A0001386418163FAC5008322050023A055000B
:1006B00011059105E3EAC5FE138541819385C19635
:1006C0006377B500232005001105E36DB5FEFD42FB
:1006D000739002BC8D42739042809302800873A095
:1006E0000230970200009382629593E23200739089
:1006F0005230EF004001970200009382A2A873904D
:10070000123473002030B71702409843B706FFF841
:1007100041111367170098C3D84337060200758F3D
:10072000D8C39843B706F7FEFD16758F98C3984354
:10073000B706FCFFFD16758F98C3D843B70681FF37
:10074000FD16758FD8C337079F0098C702C402C62D
:100750009843C166558F98C3B716024005679C42FF
:10076000F18F3EC6A24785073EC4B24781E7A24744
:10077000E397E7FEB71702409C431397E7006357E0
:10078000070685473EC632478547631FF704B717FC
:100790000240D843B706C1FFFD16D8C3D843D8C31B
:1007A000D84313670740D8C3D843758FD8C3D843FD
:1007B000B7063D00558FD8C39843B7060001558F43
:1007C00098C3984393166700E3DD06FED843B71637
:1007D0000240719BD8C3D84313672700D8C3214771
:1007E000DC42B18BE39EE7FE4101828002C661BF1D
:1007F000371702405443B7177A002146B18A9387CE
:1008000007206394C6025C435843C166C983BD8B0D
:10081000758F8907C5466393D700C9470DEB371716
:100820003D0013070790B387E70237170240544390
:1008300009671307C7AD9182BD8A36970347070042
:10084000B3D7E70037070020232EF704828037173D
:10085000024058439316E700E3C306FC37177A00BB
:1008600013070720C9B77300203001A0397132D4B3
:1008700036D63EDA2ED23AD842DC46DE83A78180D5
:100880008C4754102A863E8506CE36C6C929F240CA
:10089000216182801C51011122CC26CA4AC806CE91
:1008A0004EC652C40045AA842E8999E3EF00305AFF
:1008B0007C50858B81EB8357C40093F7072099E325
:1008C000284C39248357C400A18B99C31C48BDEF21
:1008D000A28526850D2A3DC9FD547C50858B81EB70
:1008E0008357C40093F7072099E3284CDD22F24098
:1008F00062444249B249224A2685D2440561828037
:100900001CC4050963D70700184C63CBE702638951
:1009100045031C401387170018C02380B7001C44F0
:1009200083450900FD17E9FD1CC463D40702228634
:10093000A94526851D28FD57E300F5FAA94471BF96
:10094000228626851D20E31C35FD79B7FD59294AED
:10095000F9B71C401387170018C029472380E70008
:10096000F1BFAA8503A5818035B7011122CC26CA23
:100970004AC806CE4EC62A89AE84328409C51C51A7
:1009800099E3EF00D04C1C4C1CC48357C400A18BCE
:1009900099C31C4891EFA2854A85B52011C9FD5421
:1009A000F24062444249B2492685D24405618280C0
:1009B0001C40184893F9F40F93F4F40F3385E74083
:1009C0005C486347F500A2854A85EF00502E61F927
:1009D0001C44FD171CC41C401387170018C023803B
:1009E00037015848930715006309F7008357C4007F
:1009F000858BDDD7A947E395F4FAA2854A85EF00F8
:100A0000102B59DD69BF411122C426C206C6AA8433
:100A100003A581802E8409C51C5199E3EF00304362
:100A20008317C40013F7870021EB13F7070109EBC5
:100A3000254798C093E707042316F4007D55A5A821
:100A4000918B8DC74C5889C9930744046384F50082
:100A500026854920232A04028357C4002322040048
:100A600093F7B7FD2316F4001C481CC08357C4003D
:100A700093E787002316F4001C4889EF8357C400CE
:100A80001307002093F707286386E700A2852685D1
:100A9000EF00B04A8317C40013F7170015C3584876
:100AA000232404003307E04018CC1848014501E72F
:100AB00013F7070841F3B240224492444101828077
:100AC00013F72700814611E3544814C4F9BF82800C
:100AD00082808280D1CD83A7C5FF011122CC06CEB2
:100AE0001384C5FF63D307003E942AC6F52A1387F3
:100AF00081821C43324581EB2322040000C36244FF
:100B0000F2400561EDA2637DF4001040B306C4001D
:100B10006396D7009443DC43B29614C05CC0F9BF1F
:100B20003E87DC4399C3E37DF4FE14433306D700CC
:100B3000631F86001040B29614C33306D700E390BB
:100B4000C7FC9043DC43B29614C35CC34DBF6375CE
:100B5000C400B1471CC165B71040B306C40063961A
:100B6000D7009443DC43B29614C05CC040C341BF7D
:100B7000828041114AC0138941828327090022C41F
:100B800026C206C6AA842E8491E78145EF00505EF6
:100B90002320A900A2852685EF00905D7D59631A68
:100BA00025017D54B24022852244924402494101EC
:100BB0008280130435007198E30685FEB305A440D6
:100BC0002685EF00F05AE31F25FDE1BF011126CA7B
:100BD00093843500F1984AC806CE22CC4EC652C442
:100BE000A104B1472A8963F6F406B14463E5B4066B
:100BF0004A85DD289389818283A709003E8425E800
:100C0000A6854A85BD37FD572A84631AF50C03A4CF
:100C10000900A287D5EB55CC032A040081454A85FB
:100C2000229AEF00F0546316AA0A1C404A859D8C54
:100C3000A6858137FD57630EF5081C40A6971CC09A
:100C400083A70900D9CFD8436313870823A20700DD
:100C500081A0E3DD04F8B1472320F9000145F2400B
:100C60006244D2444249B249224A0561828014401A
:100C7000858E63C806042D47637DD70204C0330701
:100C800094006396870223A0E9005C4014C35CC310
:100C90004A85B1281305B4009307440061993307CE
:100CA000F540E30EF5FA3A94898F1CC04DBFD8C3C6
:100CB000E9BF58406395870023A0E900D1BFD8C39E
:100CC000C1BFA287404025BF3E84DC43A1B7BA879D
:100CD00095BFB1472320F9004A85112841B704C1C7
:100CE00045BF2322000002901385C181D5B313852F
:100CF000C181C5B31C46FD171CC663D90700184E39
:100D000063C5E700A9476393F50085B11C422E85B2
:100D10001387170018C22380B7008280011122CCEC
:100D200026CA4AC84EC652C406CE2A89AE89328423
:100D3000B304D6007D5A63149400014509A8834585
:100D400004004E864A857D370504E31645FFF240D0
:100D50006244D2444249B249224A056182803571D7
:100D600022CD26CB4AC94EC706CF52C556C35AC15B
:100D7000DEDEE2DCE6DAAA89AE843289368409C591
:100D80001C5199E3EF00B00CFC50858B81EB83D7AD
:100D9000C40093F7072099E3A84C1D3B83D7C400F8
:100DA000A18B99C39C4895EFA6854E85A93915C995
:100DB000FC50858B99CF7D55FA406A44DA444A4904
:100DC000BA492A4A9A4A0A4BF65B665CD65C0D61C0
:100DD000828083D7C40093F70720F1FFA84CD53950
:100DE000D9BF93070002A304F1029307000302D2C4
:100DF0002305F10222C6930B5002971A0000938A32
:100E00006AC9054C294B4A848347040099C3639CF3
:100E10007709B30C2441630D2401E6864A86A68532
:100E20004E85ED3DFD576301F51A9257E6973ED288
:100E300083470400638A0718FD571309140002C88A
:100E400002CE3ECA02CCA309010482D48345090024
:100E500015465685EF00B023C2471304190031E54B
:100E600013F7070109C713070002A309E10413F7E9
:100E7000870009C71307B002A309E10483460900EC
:100E80001307A002638BE602F2474A848146254697
:100E90000347040093051400130707FD6375E60676
:100EA0008DC63ECE1DA0050485B7330555413315CB
:100EB000AC00C98F3EC8228951BF32479306470014
:100EC000184336C6634A07023ACE03470400930725
:100ED000E002631EF704034714009307A002631A9D
:100EE000F702B2470904138747009C433AC663D30D
:100EF0000700FD573ECA25A83307E04093E72700C7
:100F00003ACE3EC8D9B7B38767032E848546BA97D1
:100F100041B7050402CA81468147254603470400BC
:100F200093051400130707FD6376E606E1F6834593
:100F300004000D4617150000130545B6EF003015E7
:100F400011CD97170000938767B51D8DC247130712
:100F500000043317A700D98F05043EC88345040059
:100F60001946171500001305A5B31309140023042F
:100F7000B102EF00D0113DC99307000095E7424749
:100F8000B2471377071009CF91073EC69257D29701
:100F90003ED295BDB38767032E848546BA97BDBF01
:100FA0009D07E19BA107D5B77800970600009386BF
:100FB00026D726860C084E8597000000E700000023
:100FC000FD572A8AE314F5FCFC50858B81EB83D70F
:100FD000C40093F7072099E3A84CE53C83D7C400ED
:100FE00093F70704E39907DC1255F9B378009706E5
:100FF00000009386E6D226860C084E85112AC9B7D2
:10100000797156CA9C49BA8A984522D44AD04ECEA4
:1010100052CC06D626D25AC85EC6AA892E843289F8
:10102000368A63D3E700BA872320F90003473404E4
:1010300001C785072320F9001C4093F7070291C7D9
:101040008327090089072320F9000440998891E843
:10105000130B9401FD5B5C4403270900998F63CC5B
:10106000F40483473404B336F0001C4093F70702BE
:10107000A5EB13063404D2854E85829AFD5763038F
:10108000F5041C4011478144998B6399E70044445F
:10109000832709009D8C63D3040081441C441848B5
:1010A0006354F700998FBE94014969047D5B63988E
:1010B0002405014509A885465A86D2854E85829A1F
:1010C000631E75017D55B250225492540259F24963
:1010D000624AD24A424BB24B456182808504A5BF29
:1010E0003307D40013060003A301C70403475404C5
:1010F00093871600A2978906A381E7049DBF8546C2
:101100002286D2854E85829AE30E65FB050945B796
:10111000797122D426D24AD04ECE06D652CC56CAA7
:101120005AC803C8850193078007AA842E84328990
:10113000B68963E20703930720069386350463E1CB
:101140000703630E081A930780051716000013069D
:10115000A6956301F814930A24042301040515A835
:101160009307D8F993F7F70F5546E366F6FE17167F
:1011700000001306E6978A07B2979C43B2978287CE
:101180001C43938A2504938647009C4314C3238100
:10119000F504854741AA9C41084313F607089305C7
:1011A00045000DC21C410CC363D807001307D002D1
:1011B000B307F040A301E404171600001306C68E1F
:1011C000294889A013F607041C410CC371DEC2072D
:1011D000C187D9BF8C41104313F505081C42110685
:1011E00011E593F5050499C1C207C18310C3130724
:1011F000F006171600001306268B631CE80C214826
:10120000A3010404584018C4634807000C405D8FD4
:10121000B68AED990CC019CFB68A33F70703FD1AC9
:101220003297034707002380EA003E87B3D70703BE
:10123000E37507FFA147631EF8001C40858B91CB27
:1012400058401C4863C7E70093070003A38FFAFECA
:10125000FD1AB386564114C84E87CA867000A2850F
:101260002685793B7D5A6313450D7D55B250225436
:1012700092540259F249624AD24A424B45618280F5
:101280009C4193E707029CC11308800717160000D2
:101290001306C682A30204050C40084313F8050890
:1012A0001C4111056318080013F8050463040800C5
:1012B000C207C18308C313F7150001C793E50502F0
:1012C0000CC099C341482DBF18401377F7FD18C0D3
:1012D000D5BF294835B790411C43CC49137806083F
:1012E000138547006306080008C39C438CC301A80C
:1012F00008C3137606049C4375DA2390B7002328AD
:101300000400B68A91BF1C43D041814593864700B3
:1013100014C383AA070056859D2B01C5330555418B
:1013200048C05C401CC8A30104043DB7144856865D
:10133000CA8526858299E30A45F31C40898B8DE78F
:10134000B2474844E354F5F23E850DB785465686CC
:10135000CA8526858299E30A65F1050A5C4432470D
:10136000998FE345FAFEE9BF014A930A94017D5B38
:10137000F5B78397C500011122CC26CA06CE4AC80C
:101380004EC613F78700AA842E8479E7D8416345B7
:10139000E000B841635BE00A585445CB03A9040060
:1013A0009396370123A004000C5063DE06067048B4
:1013B0008357C400918B99C75C401D8E5C5899C3BC
:1013C0003C401D8E5C540C508146268582977D578B
:1013D0008357C400631DE500944075476369D706D1
:1013E0003707402005073357D700058B2DC3184812
:1013F0002322040018C01397370163580700FD57D4
:101400006314F5009C4091E368C84C5823A0240164
:101410008DCD930744046385F5002685EFF08FEBAF
:10142000232A04021DA00146854626850297FD5702
:101430002A86E31FF5F69C40A5DF75476385E70024
:1014400059476394E70423A024010145B1A093E721
:101450000704C207C18735A883A90501E38709FEF0
:1014600003A905008D8B23A03501330939410147BC
:1014700091E3D84918C4E35A20FD1C540C50CA8685
:101480004E86268582976340A0028317C40093E7A7
:1014900007042316F4007D55F2406244D2444249C9
:1014A000B24905618280AA993309A940E9B79C49EC
:1014B000411106C622C426C281EB8144B2402244B7
:1014C0002685924441018280AA842E8401C51C5144
:1014D00091E3B52A8317C400EDD37850058B19E743
:1014E00093F7072081E7284CEFF08FDE2685A28551
:1014F00049357C50AA84858BF1F38357C40093F758
:101500000720CDFF284CEFF0CFDC4DBF411122C4A6
:1015100006C62A842316B5002317C500232005001C
:101520002322050023240500232205062328050085
:10153000232A0500232C0500214681451305C505F6
:10154000EFE01FC097070000938707295CD097073B
:1015500000009387672B1CD4970700009387A72F61
:101560005CD497070000938767321CD800D097F7A8
:10157000FF1F9387E7B1630CF40097F7FF1F938772
:10158000A7B76306F400938741906319F40013052D
:1015900084052244B24041016FF06FD3B24022442F
:1015A0004101828017F6FF1F130686AA97050000E7
:1015B000938525F017F5FF1F1305C5A475A84C41A9
:1015C000411122C406C697F7FF1F938767AC2A8490
:1015D0006383F500E93D0C4497F7FF1F9387C7B17C
:1015E0006384F5002285E1354C44938741906387FD
:1015F000F50022852244B240410155BDB24022444B
:10160000410182804111970700009387E7F9014665
:10161000914517F5FF1F1305A5A706C623A6F1825E
:10162000F5350546A54517F5FF1F1305E5ACF93D52
:10163000B2400946C945138541904101C1BD13859A
:1016400001826FF0EFC8138501826FF08FC84111DE
:1016500022C406C62A84E5371C5089C72244B240FA
:101660004101D5B7970700009387A7F51CD083A742
:10167000C182EDF7413FDDB7797122D44AD04ECE19
:1016800052CC5AC85EC606D626D256CAAA892E8A17
:1016900032840149054BFD5B0444832A4400FD1A52
:1016A00063D00A0200406DF8B25022549254F249BD
:1016B000624AD24A424BB24B4A8502594561828006
:1016C00083D7C400637BFB008397E40063877701C3
:1016D000A6854E85029A3369A90093848406C1B712
:1016E0005971A2D42E848395E500A6D2CAD086D69D
:1016F000B284368963D305028357C40093F7070881
:101700008DEB13070040B65026542320F90098C0F3
:101710000659965401456561828030004D2AE34D9B
:1017200005FC3247BD67F98F7977BA9793B71700F1
:10173000C9BF814713070004F9B783D7C500797182
:1017400022D406D626D24AD04ECE898B2E8491CF73
:10175000930774041CC01CC885475CC8B25022544F
:1017600092540259F2494561828074003000AA8483
:10177000853FA2492A892685CE85EFF02FC501ED48
:101780008317C40013F7072071FBF19B93E7270031
:101790002316F40075BF8357C40008C008C893E738
:1017A00007082316F400B247232A340189CF831592
:1017B000E4002685892201C98357C400F19B93E781
:1017C00017002316F4008357C40033E527012316BE
:1017D000A40069B7411122C42E848395E50006C692
:1017E0009D22634905007C48AA977CC8B2402244E8
:1017F000410182808357C4007D777D17F98F2316BE
:10180000F400EDB783D7C500011122CC26CA4AC81F
:101810004EC606CE93F70710AA842E843289B68965
:1018200091C78395E50089460146CD288357C400BA
:101830007D777D17F98F8315E4002316F400624449
:10184000F240CE864A86B24942492685D244056195
:10185000A1A2411122C42E848395E50006C67D28ED
:101860007D578357C400631BE5007D777D17F98F93
:101870002316F400B2402244410182800567D98FCB
:101880002316F40068C8FDB78395E50031A893F5E9
:10189000F50F2A966314C500014582808347050031
:1018A000E38DB7FE0505FDB7411122C42A842E85BC
:1018B00023A8018206C63922FD576316F50083A7C7
:1018C000018391C31CC0B240224441018280411176
:1018D00022C42A842E85B28523A8018206C6CD287B
:1018E000FD576316F50083A7018391C31CC0B24066
:1018F000224441018280411122C42A842E8523A8DA
:10190000018206C6E128FD576316F50083A701830F
:1019100091C31CC0B240224441018280411122C4C3
:101920002A842E85B285368623A8018206C66D28B4
:10193000FD576316F50083A7018391C31CC0B24015
:10194000224441018280411122C42A842E85B2851D
:10195000368623A8018206C67128FD576316F50056
:1019600083A7018391C31CC0B240224441018280FD
:10197000411122C42A842E8523A8018206C6EFE0E5
:101980009F9AFD576316F50083A7018391C31CC07E
:10199000B240224441018280411122C42A842E8512
:1019A000B285368623A8018206C6EFE01F93FD5755
:1019B0006316F50083A7018391C31CC0B240224483
:1019C000410182809307800523A8F1827D558280A2
:1019D0009307800523A8F1827D55828093078005B7
:1019E00023A8F182014582809307800523A8F18214
:1019F0007D5582809307800523A8F1827D558280E2
:101A000053797374656D436C6B3A256C640D0A00F1
:101A100053797374656D436C6B3A25640D0A00004D
:101A2000535953434C4B5F4672657175656E6379CC
:101A30002D25640D0A00000048434C4B5F4672653B
:101A40007175656E63792D25640D0A0050434C4B0A
:101A5000315F4672657175656E63792D25640D0A77
:101A60000000000050434C4B325F46726571756553
:101A70006E63792D25640D0A000000004750494F20
:101A800020546F67676C6520544553540D00000067
:101A9000232D302B20000000686C4C0065666745E4
:101AA0004647000030313233343536373839414219
:101AB0004344454600000000303132333435363778
:101AC0003839616263646566000000000000000050
:101AD00001020304010203040607080900000000D4
:101AE00000000000010203040607080994F6FFFF46
:101AF000AAF6FFFF6AF6FFFF6AF6FFFF6AF6FFFF2E
:101B00006AF6FFFFAAF6FFFF6AF6FFFF6AF6FFFF1D
:101B10006AF6FFFF6AF6FFFFEAF7FFFFE8F6FFFF4E
:101B200094F7FFFF6AF6FFFF6AF6FFFF1AF8FFFF60
:101B30006AF6FFFFE8F6FFFF6AF6FFFF6AF6FFFFAF
:041B40009CF7FFFF10
:101B4400000000008C000020F40000205C01002054
:101B54000000000000000000000000000000000081
:101B64000000000000000000000000000000000071
:101B74000000000000000000000000000000000061
:101B84000000000000000000000000000000000051
:101B9400030000008C000020C401002000449508CC
:0C1BA40000000020000000000204060801
:00000001FF
